{
  "contractName": "PayAndGuess0",
  "abi": [
    {
      "inputs": [],
      "name": "paid",
      "outputs": [
        {
          "internalType": "uint256",
          "name": "",
          "type": "uint256"
        }
      ],
      "stateMutability": "view",
      "type": "function"
    },
    {
      "inputs": [],
      "name": "payer",
      "outputs": [
        {
          "internalType": "address payable",
          "name": "",
          "type": "address"
        }
      ],
      "stateMutability": "view",
      "type": "function"
    },
    {
      "inputs": [],
      "name": "doPay",
      "outputs": [],
      "stateMutability": "payable",
      "type": "function"
    },
    {
      "inputs": [],
      "name": "disburse",
      "outputs": [],
      "stateMutability": "nonpayable",
      "type": "function"
    }
  ],
  "bytecode": "0x608060405234801561001057600080fd5b50610352806100206000396000f3fe60806040526004361061003f5760003560e01c8063123119cd14610044578063295b4e171461006f5780636b976dda1461009a578063abc6fd0b146100a4575b600080fd5b34801561005057600080fd5b506100596100bb565b6040516100669190610250565b60405180910390f35b34801561007b57600080fd5b506100846100df565b604051610091919061028b565b60405180910390f35b6100a26100e5565b005b3480156100b057600080fd5b506100b961012e565b005b60008054906101000a900473ffffffffffffffffffffffffffffffffffffffff1681565b60015481565b336000806101000a81548173ffffffffffffffffffffffffffffffffffffffff021916908373ffffffffffffffffffffffffffffffffffffffff16021790555034600181905550565b600060015411610173576040517f08c379a000000000000000000000000000000000000000000000000000000000815260040161016a9061026b565b60405180910390fd5b60008060009054906101000a900473ffffffffffffffffffffffffffffffffffffffff1690508073ffffffffffffffffffffffffffffffffffffffff166108fc6001549081150290604051600060405180830381858888f193505050501580156101e1573d6000803e3d6000fd5b506000806101000a81549073ffffffffffffffffffffffffffffffffffffffff021916905560016000905550565b610218816102b7565b82525050565b600061022b6014836102a6565b9150610236826102f3565b602082019050919050565b61024a816102e9565b82525050565b6000602082019050610265600083018461020f565b92915050565b600060208201905081810360008301526102848161021e565b9050919050565b60006020820190506102a06000830184610241565b92915050565b600082825260208201905092915050565b60006102c2826102c9565b9050919050565b600073ffffffffffffffffffffffffffffffffffffffff82169050919050565b6000819050919050565b7f4e6f7468696e6720746f2064697362757273652e00000000000000000000000060008201525056fea2646970667358221220e6216d9aa8fd920f03bc5008940f173f37c38be16630e383b5a6adfc4171f4db64736f6c63430008030033",
  "immutableReferences": {},
  "source": "//by Christopher Chang, Alexander Kurz\n// SPDX-License-Identifier: MIT\npragma solidity ^0.8.3;\n\ncontract PayAndGuess0 {\n    address payable public payer; \n    uint public paid;\n\n    function doPay() public payable {\n        payer = payable(msg.sender);\n        paid = msg.value;\n    }\n\n    function disburse() public {\n        require(paid > 0, \"Nothing to disburse.\");\n        address payable payee = payer;\n\n        // transfer the money to the player\n        payee.transfer(paid);\n\n        // reset info on player to default\n        delete payer;\n        delete paid;\n    }\n}",
  "sourcePath": "/Users/alexanderkurz/alexhkurz-at-github/SmartContracts/Tutorial/PayAndGuessTruffle/contracts/PayAndGuess0.sol",
  "compiler": {
    "name": "solc",
    "version": "0.8.3+commit.8d00100c.Emscripten.clang"
  },
  "schemaVersion": "3.4.11",
  "updatedAt": "2023-01-14T21:41:24.501Z",
  "devdoc": {
    "kind": "dev",
    "methods": {},
    "version": 1
  },
  "userdoc": {
    "kind": "user",
    "methods": {},
    "version": 1
  }
}